{
  "address": "0xCBC80Ec784cFa9120B6af84D815610C0aF76C71f",
  "abi": [
    {
      "inputs": [
        {
          "internalType": "address[]",
          "name": "payees",
          "type": "address[]"
        },
        {
          "internalType": "uint256[]",
          "name": "shares_",
          "type": "uint256[]"
        },
        {
          "internalType": "address",
          "name": "_tok1155",
          "type": "address"
        }
      ],
      "stateMutability": "nonpayable",
      "type": "constructor"
    },
    {
      "anonymous": false,
      "inputs": [
        {
          "indexed": true,
          "internalType": "contract IERC20",
          "name": "token",
          "type": "address"
        },
        {
          "indexed": false,
          "internalType": "address",
          "name": "to",
          "type": "address"
        },
        {
          "indexed": false,
          "internalType": "uint256",
          "name": "amount",
          "type": "uint256"
        }
      ],
      "name": "ERC20PaymentReleased",
      "type": "event"
    },
    {
      "anonymous": false,
      "inputs": [
        {
          "indexed": true,
          "internalType": "address",
          "name": "previousOwner",
          "type": "address"
        },
        {
          "indexed": true,
          "internalType": "address",
          "name": "newOwner",
          "type": "address"
        }
      ],
      "name": "OwnershipTransferred",
      "type": "event"
    },
    {
      "anonymous": false,
      "inputs": [
        {
          "indexed": false,
          "internalType": "address",
          "name": "account",
          "type": "address"
        },
        {
          "indexed": false,
          "internalType": "uint256",
          "name": "shares",
          "type": "uint256"
        }
      ],
      "name": "PayeeAdded",
      "type": "event"
    },
    {
      "anonymous": false,
      "inputs": [
        {
          "indexed": false,
          "internalType": "address",
          "name": "from",
          "type": "address"
        },
        {
          "indexed": false,
          "internalType": "uint256",
          "name": "amount",
          "type": "uint256"
        }
      ],
      "name": "PaymentReceived",
      "type": "event"
    },
    {
      "anonymous": false,
      "inputs": [
        {
          "indexed": false,
          "internalType": "address",
          "name": "to",
          "type": "address"
        },
        {
          "indexed": false,
          "internalType": "uint256",
          "name": "amount",
          "type": "uint256"
        }
      ],
      "name": "PaymentReleased",
      "type": "event"
    },
    {
      "anonymous": false,
      "inputs": [
        {
          "indexed": true,
          "internalType": "bytes32",
          "name": "role",
          "type": "bytes32"
        },
        {
          "indexed": true,
          "internalType": "bytes32",
          "name": "previousAdminRole",
          "type": "bytes32"
        },
        {
          "indexed": true,
          "internalType": "bytes32",
          "name": "newAdminRole",
          "type": "bytes32"
        }
      ],
      "name": "RoleAdminChanged",
      "type": "event"
    },
    {
      "anonymous": false,
      "inputs": [
        {
          "indexed": true,
          "internalType": "bytes32",
          "name": "role",
          "type": "bytes32"
        },
        {
          "indexed": true,
          "internalType": "address",
          "name": "account",
          "type": "address"
        },
        {
          "indexed": true,
          "internalType": "address",
          "name": "sender",
          "type": "address"
        }
      ],
      "name": "RoleGranted",
      "type": "event"
    },
    {
      "anonymous": false,
      "inputs": [
        {
          "indexed": true,
          "internalType": "bytes32",
          "name": "role",
          "type": "bytes32"
        },
        {
          "indexed": true,
          "internalType": "address",
          "name": "account",
          "type": "address"
        },
        {
          "indexed": true,
          "internalType": "address",
          "name": "sender",
          "type": "address"
        }
      ],
      "name": "RoleRevoked",
      "type": "event"
    },
    {
      "anonymous": false,
      "inputs": [
        {
          "indexed": true,
          "internalType": "address",
          "name": "from",
          "type": "address"
        },
        {
          "indexed": true,
          "internalType": "address",
          "name": "to",
          "type": "address"
        },
        {
          "indexed": true,
          "internalType": "uint256",
          "name": "tokenId",
          "type": "uint256"
        }
      ],
      "name": "Transfer",
      "type": "event"
    },
    {
      "inputs": [],
      "name": "DEFAULT_ADMIN_ROLE",
      "outputs": [
        {
          "internalType": "bytes32",
          "name": "",
          "type": "bytes32"
        }
      ],
      "stateMutability": "view",
      "type": "function"
    },
    {
      "inputs": [],
      "name": "MAXPORTIONALLOWEDTOHOLD",
      "outputs": [
        {
          "internalType": "uint256",
          "name": "",
          "type": "uint256"
        }
      ],
      "stateMutability": "view",
      "type": "function"
    },
    {
      "inputs": [],
      "name": "MGMT_ROLE",
      "outputs": [
        {
          "internalType": "bytes32",
          "name": "",
          "type": "bytes32"
        }
      ],
      "stateMutability": "view",
      "type": "function"
    },
    {
      "inputs": [],
      "name": "RESERVE_ROLE",
      "outputs": [
        {
          "internalType": "bytes32",
          "name": "",
          "type": "bytes32"
        }
      ],
      "stateMutability": "view",
      "type": "function"
    },
    {
      "inputs": [
        {
          "internalType": "uint256",
          "name": "price",
          "type": "uint256"
        },
        {
          "internalType": "uint256",
          "name": "maxSupply",
          "type": "uint256"
        }
      ],
      "name": "_addTokenToSale",
      "outputs": [],
      "stateMutability": "nonpayable",
      "type": "function"
    },
    {
      "inputs": [],
      "name": "_totalCards",
      "outputs": [
        {
          "internalType": "uint256",
          "name": "",
          "type": "uint256"
        }
      ],
      "stateMutability": "view",
      "type": "function"
    },
    {
      "inputs": [
        {
          "internalType": "uint256[]",
          "name": "amount",
          "type": "uint256[]"
        },
        {
          "internalType": "uint256[]",
          "name": "tokenid",
          "type": "uint256[]"
        },
        {
          "internalType": "address",
          "name": "to",
          "type": "address"
        }
      ],
      "name": "adminBatchMint",
      "outputs": [],
      "stateMutability": "nonpayable",
      "type": "function"
    },
    {
      "inputs": [
        {
          "internalType": "uint256",
          "name": "amount",
          "type": "uint256"
        },
        {
          "internalType": "uint256",
          "name": "tokenid",
          "type": "uint256"
        },
        {
          "internalType": "address",
          "name": "to",
          "type": "address"
        }
      ],
      "name": "adminMint",
      "outputs": [],
      "stateMutability": "nonpayable",
      "type": "function"
    },
    {
      "inputs": [
        {
          "internalType": "uint256",
          "name": "_maxpropallowed",
          "type": "uint256"
        }
      ],
      "name": "changeMaxProp",
      "outputs": [],
      "stateMutability": "nonpayable",
      "type": "function"
    },
    {
      "inputs": [],
      "name": "flipSaleState",
      "outputs": [],
      "stateMutability": "nonpayable",
      "type": "function"
    },
    {
      "inputs": [
        {
          "internalType": "uint256",
          "name": "tokenid",
          "type": "uint256"
        }
      ],
      "name": "getCardStruct",
      "outputs": [
        {
          "internalType": "uint256",
          "name": "tokenId",
          "type": "uint256"
        },
        {
          "internalType": "uint256",
          "name": "price",
          "type": "uint256"
        },
        {
          "internalType": "uint256",
          "name": "maxSupply",
          "type": "uint256"
        },
        {
          "internalType": "uint256",
          "name": "totalminted",
          "type": "uint256"
        }
      ],
      "stateMutability": "view",
      "type": "function"
    },
    {
      "inputs": [
        {
          "internalType": "bytes32",
          "name": "role",
          "type": "bytes32"
        }
      ],
      "name": "getRoleAdmin",
      "outputs": [
        {
          "internalType": "bytes32",
          "name": "",
          "type": "bytes32"
        }
      ],
      "stateMutability": "view",
      "type": "function"
    },
    {
      "inputs": [
        {
          "internalType": "bytes32",
          "name": "role",
          "type": "bytes32"
        },
        {
          "internalType": "address",
          "name": "account",
          "type": "address"
        }
      ],
      "name": "grantRole",
      "outputs": [],
      "stateMutability": "nonpayable",
      "type": "function"
    },
    {
      "inputs": [
        {
          "internalType": "bytes32",
          "name": "role",
          "type": "bytes32"
        },
        {
          "internalType": "address",
          "name": "account",
          "type": "address"
        }
      ],
      "name": "hasRole",
      "outputs": [
        {
          "internalType": "bool",
          "name": "",
          "type": "bool"
        }
      ],
      "stateMutability": "view",
      "type": "function"
    },
    {
      "inputs": [
        {
          "internalType": "uint256",
          "name": "amount",
          "type": "uint256"
        },
        {
          "internalType": "uint256",
          "name": "tokenid",
          "type": "uint256"
        },
        {
          "internalType": "address",
          "name": "to",
          "type": "address"
        }
      ],
      "name": "mintedAllow",
      "outputs": [
        {
          "internalType": "bool",
          "name": "",
          "type": "bool"
        }
      ],
      "stateMutability": "view",
      "type": "function"
    },
    {
      "inputs": [],
      "name": "name",
      "outputs": [
        {
          "internalType": "string",
          "name": "",
          "type": "string"
        }
      ],
      "stateMutability": "view",
      "type": "function"
    },
    {
      "inputs": [],
      "name": "owner",
      "outputs": [
        {
          "internalType": "address",
          "name": "",
          "type": "address"
        }
      ],
      "stateMutability": "view",
      "type": "function"
    },
    {
      "inputs": [
        {
          "internalType": "uint256",
          "name": "index",
          "type": "uint256"
        }
      ],
      "name": "payee",
      "outputs": [
        {
          "internalType": "address",
          "name": "",
          "type": "address"
        }
      ],
      "stateMutability": "view",
      "type": "function"
    },
    {
      "inputs": [
        {
          "internalType": "uint256",
          "name": "amount",
          "type": "uint256"
        },
        {
          "internalType": "uint256",
          "name": "tokenid",
          "type": "uint256"
        }
      ],
      "name": "publicMint",
      "outputs": [],
      "stateMutability": "payable",
      "type": "function"
    },
    {
      "inputs": [
        {
          "internalType": "address",
          "name": "account",
          "type": "address"
        }
      ],
      "name": "releasable",
      "outputs": [
        {
          "internalType": "uint256",
          "name": "",
          "type": "uint256"
        }
      ],
      "stateMutability": "view",
      "type": "function"
    },
    {
      "inputs": [
        {
          "internalType": "contract IERC20",
          "name": "token",
          "type": "address"
        },
        {
          "internalType": "address",
          "name": "account",
          "type": "address"
        }
      ],
      "name": "releasable",
      "outputs": [
        {
          "internalType": "uint256",
          "name": "",
          "type": "uint256"
        }
      ],
      "stateMutability": "view",
      "type": "function"
    },
    {
      "inputs": [
        {
          "internalType": "address payable",
          "name": "account",
          "type": "address"
        }
      ],
      "name": "release",
      "outputs": [],
      "stateMutability": "nonpayable",
      "type": "function"
    },
    {
      "inputs": [
        {
          "internalType": "contract IERC20",
          "name": "token",
          "type": "address"
        },
        {
          "internalType": "address",
          "name": "account",
          "type": "address"
        }
      ],
      "name": "release",
      "outputs": [],
      "stateMutability": "nonpayable",
      "type": "function"
    },
    {
      "inputs": [
        {
          "internalType": "contract IERC20",
          "name": "token",
          "type": "address"
        },
        {
          "internalType": "address",
          "name": "account",
          "type": "address"
        }
      ],
      "name": "released",
      "outputs": [
        {
          "internalType": "uint256",
          "name": "",
          "type": "uint256"
        }
      ],
      "stateMutability": "view",
      "type": "function"
    },
    {
      "inputs": [
        {
          "internalType": "address",
          "name": "account",
          "type": "address"
        }
      ],
      "name": "released",
      "outputs": [
        {
          "internalType": "uint256",
          "name": "",
          "type": "uint256"
        }
      ],
      "stateMutability": "view",
      "type": "function"
    },
    {
      "inputs": [],
      "name": "renounceOwnership",
      "outputs": [],
      "stateMutability": "nonpayable",
      "type": "function"
    },
    {
      "inputs": [
        {
          "internalType": "bytes32",
          "name": "role",
          "type": "bytes32"
        },
        {
          "internalType": "address",
          "name": "account",
          "type": "address"
        }
      ],
      "name": "renounceRole",
      "outputs": [],
      "stateMutability": "nonpayable",
      "type": "function"
    },
    {
      "inputs": [
        {
          "internalType": "bytes32",
          "name": "role",
          "type": "bytes32"
        },
        {
          "internalType": "address",
          "name": "account",
          "type": "address"
        }
      ],
      "name": "revokeRole",
      "outputs": [],
      "stateMutability": "nonpayable",
      "type": "function"
    },
    {
      "inputs": [],
      "name": "saleIsActive",
      "outputs": [
        {
          "internalType": "bool",
          "name": "",
          "type": "bool"
        }
      ],
      "stateMutability": "view",
      "type": "function"
    },
    {
      "inputs": [
        {
          "internalType": "uint256",
          "name": "tokenid",
          "type": "uint256"
        },
        {
          "internalType": "uint256",
          "name": "tokenidprice",
          "type": "uint256"
        }
      ],
      "name": "setPrice",
      "outputs": [],
      "stateMutability": "nonpayable",
      "type": "function"
    },
    {
      "inputs": [
        {
          "internalType": "uint256",
          "name": "tokenid",
          "type": "uint256"
        },
        {
          "internalType": "uint256",
          "name": "maxsupply",
          "type": "uint256"
        }
      ],
      "name": "setSupply",
      "outputs": [],
      "stateMutability": "nonpayable",
      "type": "function"
    },
    {
      "inputs": [
        {
          "internalType": "address",
          "name": "account",
          "type": "address"
        }
      ],
      "name": "shares",
      "outputs": [
        {
          "internalType": "uint256",
          "name": "",
          "type": "uint256"
        }
      ],
      "stateMutability": "view",
      "type": "function"
    },
    {
      "inputs": [
        {
          "internalType": "bytes4",
          "name": "interfaceId",
          "type": "bytes4"
        }
      ],
      "name": "supportsInterface",
      "outputs": [
        {
          "internalType": "bool",
          "name": "",
          "type": "bool"
        }
      ],
      "stateMutability": "view",
      "type": "function"
    },
    {
      "inputs": [
        {
          "internalType": "contract IERC20",
          "name": "token",
          "type": "address"
        }
      ],
      "name": "totalReleased",
      "outputs": [
        {
          "internalType": "uint256",
          "name": "",
          "type": "uint256"
        }
      ],
      "stateMutability": "view",
      "type": "function"
    },
    {
      "inputs": [],
      "name": "totalReleased",
      "outputs": [
        {
          "internalType": "uint256",
          "name": "",
          "type": "uint256"
        }
      ],
      "stateMutability": "view",
      "type": "function"
    },
    {
      "inputs": [],
      "name": "totalShares",
      "outputs": [
        {
          "internalType": "uint256",
          "name": "",
          "type": "uint256"
        }
      ],
      "stateMutability": "view",
      "type": "function"
    },
    {
      "inputs": [
        {
          "internalType": "address",
          "name": "newOwner",
          "type": "address"
        }
      ],
      "name": "transferOwnership",
      "outputs": [],
      "stateMutability": "nonpayable",
      "type": "function"
    },
    {
      "inputs": [],
      "name": "withdrawAll",
      "outputs": [],
      "stateMutability": "nonpayable",
      "type": "function"
    },
    {
      "stateMutability": "payable",
      "type": "receive"
    }
  ],
  "transactionHash": "0x2d7196e9d1d95307926463149feee4b6f5bd0efe4b6cb5173c2ad1b574a85f6d",
  "args": [
    [
      "0xCbA2602D63bAEbBE3050ce8b41C633a22fe9464c"
    ],
    [
      1000
    ],
    "0x10317824cb6ce641FbBF4d23783615FC82632064"
  ],
  "numDeployments": 1,
  "solcInputHash": "c2bdf7818e91dfd7e7fea830066d892e",
  "bytecode": "0x6080604052600d805460ff19169055600a600e553480156200002057600080fd5b50604051620029b8380380620029b8833981016040819052620000439162000686565b82826200005033620001f9565b8051825114620000e7576040517f08c379a000000000000000000000000000000000000000000000000000000000815260206004820152603260248201527f5061796d656e7453706c69747465723a2070617965657320616e64207368617260448201527f6573206c656e677468206d69736d61746368000000000000000000000000000060648201526084015b60405180910390fd5b600082511162000154576040517f08c379a000000000000000000000000000000000000000000000000000000000815260206004820152601a60248201527f5061796d656e7453706c69747465723a206e6f207061796565730000000000006044820152606401620000de565b60005b8251811015620001c057620001ab8382815181106200017a576200017a62000768565b602002602001015183838151811062000197576200019762000768565b60200260200101516200024960201b60201c565b80620001b781620007c6565b91505062000157565b5050600160085550601080546001600160a01b0319166001600160a01b038316179055620001f0600033620004a7565b505050620007f8565b600080546001600160a01b038381166001600160a01b0319831681178455604051919092169283917f8be0079c531659141344cd1fd0a4f28419497f9722a3daafe3b4186f6b6457e09190a35050565b6001600160a01b038216620002e1576040517f08c379a000000000000000000000000000000000000000000000000000000000815260206004820152602c60248201527f5061796d656e7453706c69747465723a206163636f756e74206973207468652060448201527f7a65726f206164647265737300000000000000000000000000000000000000006064820152608401620000de565b600081116200034d576040517f08c379a000000000000000000000000000000000000000000000000000000000815260206004820152601d60248201527f5061796d656e7453706c69747465723a207368617265732061726520300000006044820152606401620000de565b6001600160a01b03821660009081526003602052604090205415620003f5576040517f08c379a000000000000000000000000000000000000000000000000000000000815260206004820152602b60248201527f5061796d656e7453706c69747465723a206163636f756e7420616c726561647960448201527f20686173207368617265730000000000000000000000000000000000000000006064820152608401620000de565b6005805460018082019092557f036b6384b5eca791c62761152d0c79bb0604c104a5fb6f4eb0703f3154bb3db00180546001600160a01b0319166001600160a01b0385169081179091556000908152600360205260409020829055546200045e908290620007e2565b600155604080516001600160a01b0384168152602081018390527f40c340f65e17194d14ddddb073d3c9f888e3cb52b5aae0c6c7706b4fbc905fac910160405180910390a15050565b620004b38282620004b7565b5050565b620004c3828262000541565b620004b35760008281526009602090815260408083206001600160a01b03851684529091529020805460ff19166001179055620004fd3390565b6001600160a01b0316816001600160a01b0316837f2f8788117e7eff1d82e926ec794901d17c78024a50270940304540a733656f0d60405160405180910390a45050565b60008281526009602090815260408083206001600160a01b038516845290915290205460ff165b92915050565b7f4e487b7100000000000000000000000000000000000000000000000000000000600052604160045260246000fd5b604051601f8201601f191681016001600160401b0381118282101715620005c857620005c86200056e565b604052919050565b60006001600160401b03821115620005ec57620005ec6200056e565b5060051b60200190565b80516001600160a01b03811681146200060e57600080fd5b919050565b600082601f8301126200062557600080fd5b815160206200063e6200063883620005d0565b6200059d565b82815260059290921b840181019181810190868411156200065e57600080fd5b8286015b848110156200067b578051835291830191830162000662565b509695505050505050565b6000806000606084860312156200069c57600080fd5b83516001600160401b0380821115620006b457600080fd5b818601915086601f830112620006c957600080fd5b81516020620006dc6200063883620005d0565b82815260059290921b8401810191818101908a841115620006fc57600080fd5b948201945b8386101562000725576200071586620005f6565b8252948201949082019062000701565b918901519197509093505050808211156200073f57600080fd5b506200074e8682870162000613565b9250506200075f60408501620005f6565b90509250925092565b7f4e487b7100000000000000000000000000000000000000000000000000000000600052603260045260246000fd5b7f4e487b7100000000000000000000000000000000000000000000000000000000600052601160045260246000fd5b600060018201620007db57620007db62000797565b5060010190565b8082018082111562000568576200056862000797565b6121b080620008086000396000f3fe6080604052600436106102295760003560e01c80638bb23cbe11610123578063ce7c2ac2116100ab578063e33b7de31161006f578063e33b7de31461074d578063eb8d244414610762578063f2fde38b1461077c578063f7d975771461079c578063fc784d49146107bc57600080fd5b8063ce7c2ac214610648578063d26768061461067e578063d547741f14610694578063d79779b2146106b4578063dea68e89146106ea57600080fd5b80639852595c116100f25780639852595c146105aa57806398ae99a8146105e0578063a217fddf146105f3578063a3f8eace14610608578063c45ac0501461062857600080fd5b80638bb23cbe1461052c5780638da5cb5b1461054c57806391d148541461056a578063929df3be1461058a57600080fd5b80632f2ff15d116101b1578063406072a911610175578063406072a91461046457806348b75044146104aa578063715018a6146104ca578063853828b6146104df5780638b83209b146104f457600080fd5b80632f2ff15d146103e45780632f92290b1461040457806334918dfd1461041a57806336568abe1461042f5780633a98ef391461044f57600080fd5b806319165587116101f85780631916558714610310578063191fd57d146103305780632373305714610372578063248a9ca3146103945780632da63608146103c457600080fd5b806301ffc9a714610277578063049af93e146102ac57806306fdde03146102ce5780630bc23355146102f057600080fd5b36610272577f6ef95f06320e7a25a04a175ca677b7052bdd97131872c2192525a629f51be77033604080516001600160a01b0390921682523460208301520160405180910390a1005b600080fd5b34801561028357600080fd5b50610297610292366004611b80565b6107dc565b60405190151581526020015b60405180910390f35b3480156102b857600080fd5b506102cc6102c7366004611baa565b610813565b005b3480156102da57600080fd5b506102e3610831565b6040516102a39190611be7565b3480156102fc57600080fd5b506102cc61030b366004611c1a565b6108bf565b34801561031c57600080fd5b506102cc61032b366004611c51565b610948565b34801561033c57600080fd5b506103647fbf575aa07286781f90c1bdc8f4940c6c29874a0c25a1f1fe7661650b409c01ff81565b6040519081526020016102a3565b34801561037e57600080fd5b5061036460008051602061215b83398151915281565b3480156103a057600080fd5b506103646103af366004611baa565b60009081526009602052604090206001015490565b3480156103d057600080fd5b506102cc6103df366004611c6e565b610a4a565b3480156103f057600080fd5b506102cc6103ff366004611ca7565b610b15565b34801561041057600080fd5b50610364600c5481565b34801561042657600080fd5b506102cc610b3f565b34801561043b57600080fd5b506102cc61044a366004611ca7565b610b6c565b34801561045b57600080fd5b50600154610364565b34801561047057600080fd5b5061036461047f366004611cd7565b6001600160a01b03918216600090815260076020908152604080832093909416825291909152205490565b3480156104b657600080fd5b506102cc6104c5366004611cd7565b610bea565b3480156104d657600080fd5b506102cc610d0d565b3480156104eb57600080fd5b506102cc610d21565b34801561050057600080fd5b5061051461050f366004611baa565b610d78565b6040516001600160a01b0390911681526020016102a3565b34801561053857600080fd5b50610297610547366004611c6e565b610da8565b34801561055857600080fd5b506000546001600160a01b0316610514565b34801561057657600080fd5b50610297610585366004611ca7565b610e77565b34801561059657600080fd5b506102cc6105a5366004611dab565b610ea2565b3480156105b657600080fd5b506103646105c5366004611c51565b6001600160a01b031660009081526004602052604090205490565b6102cc6105ee366004611c1a565b610f99565b3480156105ff57600080fd5b50610364600081565b34801561061457600080fd5b50610364610623366004611c51565b6111bf565b34801561063457600080fd5b50610364610643366004611cd7565b611201565b34801561065457600080fd5b50610364610663366004611c51565b6001600160a01b031660009081526003602052604090205490565b34801561068a57600080fd5b50610364600e5481565b3480156106a057600080fd5b506102cc6106af366004611ca7565b6112cc565b3480156106c057600080fd5b506103646106cf366004611c51565b6001600160a01b031660009081526006602052604090205490565b3480156106f657600080fd5b5061072d610705366004611baa565b6000908152600b60205260409020805460018201546002830154600390930154919390929190565b6040805194855260208501939093529183015260608201526080016102a3565b34801561075957600080fd5b50600254610364565b34801561076e57600080fd5b50600d546102979060ff1681565b34801561078857600080fd5b506102cc610797366004611c51565b6112f1565b3480156107a857600080fd5b506102cc6107b7366004611c1a565b611367565b3480156107c857600080fd5b506102cc6107d7366004611c1a565b611395565b60006001600160e01b03198216637965db0b60e01b148061080d57506301ffc9a760e01b6001600160e01b03198316145b92915050565b60008051602061215b83398151915261082b81611411565b50600e55565b600a805461083e90611e18565b80601f016020809104026020016040519081016040528092919081815260200182805461086a90611e18565b80156108b75780601f1061088c576101008083540402835291602001916108b7565b820191906000526020600020905b81548152906001019060200180831161089a57829003601f168201915b505050505081565b60008051602061215b8339815191526108d781611411565b60408051608081018252600c805461ffff811683526020808401888152848601888152600060608701818152948152600b9093529582209451855551600180860191909155945160028501559051600390930192909255805490919061093e908490611e68565b9091555050505050565b6001600160a01b0381166000908152600360205260409020546109865760405162461bcd60e51b815260040161097d90611e7b565b60405180910390fd5b6000610991826111bf565b9050806000036109b35760405162461bcd60e51b815260040161097d90611ec1565b6001600160a01b038216600090815260046020526040812080548392906109db908490611e68565b9250508190555080600260008282546109f49190611e68565b90915550610a049050828261141b565b604080516001600160a01b0384168152602081018390527fdf20fd1e76bc69d672e4814fafb2c449bba3a5369d8359adf9e05e6fde87b056910160405180910390a15050565b7fbf575aa07286781f90c1bdc8f4940c6c29874a0c25a1f1fe7661650b409c01ff610a7481611411565b600d5460ff16610a965760405162461bcd60e51b815260040161097d90611f0c565b610aa08385611535565b50601054604051630ab714fb60e11b81526001600160a01b03848116600483015260248201869052604482018790529091169063156e29f6906064015b600060405180830381600087803b158015610af757600080fd5b505af1158015610b0b573d6000803e3d6000fd5b5050505050505050565b600082815260096020526040902060010154610b3081611411565b610b3a8383611573565b505050565b60008051602061215b833981519152610b5781611411565b50600d805460ff19811660ff90911615179055565b6001600160a01b0381163314610bdc5760405162461bcd60e51b815260206004820152602f60248201527f416363657373436f6e74726f6c3a2063616e206f6e6c792072656e6f756e636560448201526e103937b632b9903337b91039b2b63360891b606482015260840161097d565b610be682826115f9565b5050565b6001600160a01b038116600090815260036020526040902054610c1f5760405162461bcd60e51b815260040161097d90611e7b565b6000610c2b8383611201565b905080600003610c4d5760405162461bcd60e51b815260040161097d90611ec1565b6001600160a01b03808416600090815260076020908152604080832093861683529290529081208054839290610c84908490611e68565b90915550506001600160a01b03831660009081526006602052604081208054839290610cb1908490611e68565b90915550610cc29050838383611660565b604080516001600160a01b038481168252602082018490528516917f3be5b7a71e84ed12875d241991c70855ac5817d847039e17a9d895c1ceb0f18a910160405180910390a2505050565b610d156116b2565b610d1f600061170c565b565b60008051602061215b833981519152610d3981611411565b6000546001600160a01b03166040516001600160a01b039190911690303180156108fc02916000818181858888f19350505050610d7557600080fd5b50565b600060058281548110610d8d57610d8d611f35565b6000918252602090912001546001600160a01b031692915050565b6000828152600b60205260408082206010549151627eeac760e11b81526001600160a01b0385811660048301526024820187905291928492169062fdd58e90604401602060405180830381865afa158015610e07573d6000803e3d6000fd5b505050506040513d601f19601f82011682018060405250810190610e2b9190611f4b565b6002830154600e5491925090600090610e46836103e8611f64565b610e509190611f64565b610e5a8985611e68565b610e6790620186a0611f64565b11159450505050505b9392505050565b60009182526009602090815260408084206001600160a01b0393909316845291905290205460ff1690565b7fbf575aa07286781f90c1bdc8f4940c6c29874a0c25a1f1fe7661650b409c01ff610ecc81611411565b600d5460ff16610eee5760405162461bcd60e51b815260040161097d90611f0c565b60015b8351811015610f6457610f36848281518110610f0f57610f0f611f35565b6020026020010151868381518110610f2957610f29611f35565b6020026020010151611535565b610f525760405162461bcd60e51b815260040161097d90611f7b565b80610f5c81611fc7565b915050610ef1565b506010546040516338ecb05f60e01b81526001600160a01b03909116906338ecb05f90610add9085908790899060040161201b565b6000818152600b602052604080822060028101546010549251627eeac760e11b8152336004820152602481018690529193909290916001600160a01b039091169062fdd58e90604401602060405180830381865afa158015610fff573d6000803e3d6000fd5b505050506040513d601f19601f820116820180604052508101906110239190611f4b565b60018401546003850154600d54929350909160ff166110545760405162461bcd60e51b815260040161097d90611f0c565b600e54846110628986611e68565b61106c919061205b565b611078906103e8611f64565b106110ba5760405162461bcd60e51b815260206004820152601260248201527122bc31b2b232b210383932b837b93a34b7b760711b604482015260640161097d565b346110c58884611f64565b111561110a5760405162461bcd60e51b8152602060048201526014602482015273139bdd08195b9bdd59da0818dbda5b881cd95b9d60621b604482015260640161097d565b836111158883611e68565b11156111335760405162461bcd60e51b815260040161097d90611f7b565b601054604051630ab714fb60e11b815233600482015260248101889052604481018990526001600160a01b039091169063156e29f690606401600060405180830381600087803b15801561118657600080fd5b505af115801561119a573d6000803e3d6000fd5b505050508685600301546111ae9190611e68565b856003018190555050505050505050565b6000806111cb60025490565b6111d6903031611e68565b9050610e7083826111fc866001600160a01b031660009081526004602052604090205490565b61175c565b6001600160a01b03821660009081526006602052604081205481906040516370a0823160e01b81523060048201526001600160a01b038616906370a0823190602401602060405180830381865afa158015611260573d6000803e3d6000fd5b505050506040513d601f19601f820116820180604052508101906112849190611f4b565b61128e9190611e68565b6001600160a01b038086166000908152600760209081526040808320938816835292905220549091506112c4908490839061175c565b949350505050565b6000828152600960205260409020600101546112e781611411565b610b3a83836115f9565b6112f96116b2565b6001600160a01b03811661135e5760405162461bcd60e51b815260206004820152602660248201527f4f776e61626c653a206e6577206f776e657220697320746865207a65726f206160448201526564647265737360d01b606482015260840161097d565b610d758161170c565b60008051602061215b83398151915261137f81611411565b506000918252600b602052604090912060010155565b60008051602061215b8339815191526113ad81611411565b6000838152600b6020526040902060038101548310156114065760405162461bcd60e51b81526020600482015260146024820152731b5bdc99481a185cc81899595b881b5a5b9d195960621b604482015260640161097d565b600201919091555050565b610d75813361179a565b303181111561146c5760405162461bcd60e51b815260206004820152601d60248201527f416464726573733a20696e73756666696369656e742062616c616e6365000000604482015260640161097d565b6000826001600160a01b03168260405160006040518083038185875af1925050503d80600081146114b9576040519150601f19603f3d011682016040523d82523d6000602084013e6114be565b606091505b5050905080610b3a5760405162461bcd60e51b815260206004820152603a60248201527f416464726573733a20756e61626c6520746f2073656e642076616c75652c207260448201527f6563697069656e74206d61792068617665207265766572746564000000000000606482015260840161097d565b6000828152600b60205260408120600281015460038201546115578582611e68565b6003840155816115678683611e68565b11159695505050505050565b61157d8282610e77565b610be65760008281526009602090815260408083206001600160a01b03851684529091529020805460ff191660011790556115b53390565b6001600160a01b0316816001600160a01b0316837f2f8788117e7eff1d82e926ec794901d17c78024a50270940304540a733656f0d60405160405180910390a45050565b6116038282610e77565b15610be65760008281526009602090815260408083206001600160a01b0385168085529252808320805460ff1916905551339285917ff6391f5c32d9c69d2a47ea670b442974b53935d1edc7fd64eb21e047a839171b9190a45050565b604080516001600160a01b038416602482015260448082018490528251808303909101815260649091019091526020810180516001600160e01b031663a9059cbb60e01b179052610b3a9084906117fe565b6000546001600160a01b03163314610d1f5760405162461bcd60e51b815260206004820181905260248201527f4f776e61626c653a2063616c6c6572206973206e6f7420746865206f776e6572604482015260640161097d565b600080546001600160a01b038381166001600160a01b0319831681178455604051919092169283917f8be0079c531659141344cd1fd0a4f28419497f9722a3daafe3b4186f6b6457e09190a35050565b6001546001600160a01b038416600090815260036020526040812054909183916117869086611f64565b611790919061205b565b6112c4919061207d565b6117a48282610e77565b610be6576117bc816001600160a01b031660146118d0565b6117c78360206118d0565b6040516020016117d8929190612090565b60408051601f198184030181529082905262461bcd60e51b825261097d91600401611be7565b6000611853826040518060400160405280602081526020017f5361666545524332303a206c6f772d6c6576656c2063616c6c206661696c6564815250856001600160a01b0316611a6c9092919063ffffffff16565b805190915015610b3a57808060200190518101906118719190612105565b610b3a5760405162461bcd60e51b815260206004820152602a60248201527f5361666545524332303a204552433230206f7065726174696f6e20646964206e6044820152691bdd081cdd58d8d9595960b21b606482015260840161097d565b606060006118df836002611f64565b6118ea906002611e68565b67ffffffffffffffff81111561190257611902611d05565b6040519080825280601f01601f19166020018201604052801561192c576020820181803683370190505b509050600360fc1b8160008151811061194757611947611f35565b60200101906001600160f81b031916908160001a905350600f60fb1b8160018151811061197657611976611f35565b60200101906001600160f81b031916908160001a905350600061199a846002611f64565b6119a5906001611e68565b90505b6001811115611a1d576f181899199a1a9b1b9c1cb0b131b232b360811b85600f16601081106119d9576119d9611f35565b1a60f81b8282815181106119ef576119ef611f35565b60200101906001600160f81b031916908160001a90535060049490941c93611a1681612127565b90506119a8565b508315610e705760405162461bcd60e51b815260206004820181905260248201527f537472696e67733a20686578206c656e67746820696e73756666696369656e74604482015260640161097d565b60606112c48484600085856001600160a01b0385163b611ace5760405162461bcd60e51b815260206004820152601d60248201527f416464726573733a2063616c6c20746f206e6f6e2d636f6e7472616374000000604482015260640161097d565b600080866001600160a01b03168587604051611aea919061213e565b60006040518083038185875af1925050503d8060008114611b27576040519150601f19603f3d011682016040523d82523d6000602084013e611b2c565b606091505b5091509150611b3c828286611b47565b979650505050505050565b60608315611b56575081610e70565b825115611b665782518084602001fd5b8160405162461bcd60e51b815260040161097d9190611be7565b600060208284031215611b9257600080fd5b81356001600160e01b031981168114610e7057600080fd5b600060208284031215611bbc57600080fd5b5035919050565b60005b83811015611bde578181015183820152602001611bc6565b50506000910152565b6020815260008251806020840152611c06816040850160208701611bc3565b601f01601f19169190910160400192915050565b60008060408385031215611c2d57600080fd5b50508035926020909101359150565b6001600160a01b0381168114610d7557600080fd5b600060208284031215611c6357600080fd5b8135610e7081611c3c565b600080600060608486031215611c8357600080fd5b83359250602084013591506040840135611c9c81611c3c565b809150509250925092565b60008060408385031215611cba57600080fd5b823591506020830135611ccc81611c3c565b809150509250929050565b60008060408385031215611cea57600080fd5b8235611cf581611c3c565b91506020830135611ccc81611c3c565b634e487b7160e01b600052604160045260246000fd5b600082601f830112611d2c57600080fd5b8135602067ffffffffffffffff80831115611d4957611d49611d05565b8260051b604051601f19603f83011681018181108482111715611d6e57611d6e611d05565b604052938452858101830193838101925087851115611d8c57600080fd5b83870191505b84821015611b3c57813583529183019190830190611d92565b600080600060608486031215611dc057600080fd5b833567ffffffffffffffff80821115611dd857600080fd5b611de487838801611d1b565b94506020860135915080821115611dfa57600080fd5b50611e0786828701611d1b565b9250506040840135611c9c81611c3c565b600181811c90821680611e2c57607f821691505b602082108103611e4c57634e487b7160e01b600052602260045260246000fd5b50919050565b634e487b7160e01b600052601160045260246000fd5b8082018082111561080d5761080d611e52565b60208082526026908201527f5061796d656e7453706c69747465723a206163636f756e7420686173206e6f2060408201526573686172657360d01b606082015260800190565b6020808252602b908201527f5061796d656e7453706c69747465723a206163636f756e74206973206e6f742060408201526a191d59481c185e5b595b9d60aa1b606082015260800190565b6020808252600f908201526e53616c65204e6f742041637469766560881b604082015260600190565b634e487b7160e01b600052603260045260246000fd5b600060208284031215611f5d57600080fd5b5051919050565b808202811582820484141761080d5761080d611e52565b6020808252602c908201527f4d696e7420776f756c6420657863656564206d617820737570706c79206f662060408201526b1d1a1a5cc81d1bdad95b9a5960a21b606082015260800190565b600060018201611fd957611fd9611e52565b5060010190565b600081518084526020808501945080840160005b8381101561201057815187529582019590820190600101611ff4565b509495945050505050565b6001600160a01b038416815260606020820181905260009061203f90830185611fe0565b82810360408401526120518185611fe0565b9695505050505050565b60008261207857634e487b7160e01b600052601260045260246000fd5b500490565b8181038181111561080d5761080d611e52565b7f416363657373436f6e74726f6c3a206163636f756e74200000000000000000008152600083516120c8816017850160208801611bc3565b7001034b99036b4b9b9b4b733903937b6329607d1b60179184019182015283516120f9816028840160208801611bc3565b01602801949350505050565b60006020828403121561211757600080fd5b81518015158114610e7057600080fd5b60008161213657612136611e52565b506000190190565b60008251612150818460208701611bc3565b919091019291505056fe37fd693acb46ecffa9573b433b3df70e85bbfc889c676d3767f45200f5d43e88a26469706673582212208dbfa6797aa689ab586433014815cca705ed2cd012a18eabd54e6e02dc29579564736f6c63430008110033",
  "devdoc": {
    "kind": "dev",
    "methods": {
      "getRoleAdmin(bytes32)": {
        "details": "Returns the admin role that controls `role`. See {grantRole} and {revokeRole}. To change a role's admin, use {_setRoleAdmin}."
      },
      "grantRole(bytes32,address)": {
        "details": "Grants `role` to `account`. If `account` had not been already granted `role`, emits a {RoleGranted} event. Requirements: - the caller must have ``role``'s admin role. May emit a {RoleGranted} event."
      },
      "hasRole(bytes32,address)": {
        "details": "Returns `true` if `account` has been granted `role`."
      },
      "owner()": {
        "details": "Returns the address of the current owner."
      },
      "payee(uint256)": {
        "details": "Getter for the address of the payee number `index`."
      },
      "releasable(address)": {
        "details": "Getter for the amount of payee's releasable Ether."
      },
      "releasable(address,address)": {
        "details": "Getter for the amount of payee's releasable `token` tokens. `token` should be the address of an IERC20 contract."
      },
      "release(address)": {
        "details": "Triggers a transfer to `account` of the amount of Ether they are owed, according to their percentage of the total shares and their previous withdrawals."
      },
      "release(address,address)": {
        "details": "Triggers a transfer to `account` of the amount of `token` tokens they are owed, according to their percentage of the total shares and their previous withdrawals. `token` must be the address of an IERC20 contract."
      },
      "released(address)": {
        "details": "Getter for the amount of Ether already released to a payee."
      },
      "released(address,address)": {
        "details": "Getter for the amount of `token` tokens already released to a payee. `token` should be the address of an IERC20 contract."
      },
      "renounceOwnership()": {
        "details": "Leaves the contract without owner. It will not be possible to call `onlyOwner` functions anymore. Can only be called by the current owner. NOTE: Renouncing ownership will leave the contract without an owner, thereby removing any functionality that is only available to the owner."
      },
      "renounceRole(bytes32,address)": {
        "details": "Revokes `role` from the calling account. Roles are often managed via {grantRole} and {revokeRole}: this function's purpose is to provide a mechanism for accounts to lose their privileges if they are compromised (such as when a trusted device is misplaced). If the calling account had been revoked `role`, emits a {RoleRevoked} event. Requirements: - the caller must be `account`. May emit a {RoleRevoked} event."
      },
      "revokeRole(bytes32,address)": {
        "details": "Revokes `role` from `account`. If `account` had been granted `role`, emits a {RoleRevoked} event. Requirements: - the caller must have ``role``'s admin role. May emit a {RoleRevoked} event."
      },
      "shares(address)": {
        "details": "Getter for the amount of shares held by an account."
      },
      "supportsInterface(bytes4)": {
        "details": "See {IERC165-supportsInterface}."
      },
      "totalReleased()": {
        "details": "Getter for the total amount of Ether already released."
      },
      "totalReleased(address)": {
        "details": "Getter for the total amount of `token` already released. `token` should be the address of an IERC20 contract."
      },
      "totalShares()": {
        "details": "Getter for the total shares held by payees."
      },
      "transferOwnership(address)": {
        "details": "Transfers ownership of the contract to a new account (`newOwner`). Can only be called by the current owner."
      }
    },
    "version": 1
  },
  "userdoc": {
    "kind": "user",
    "methods": {
      "_addTokenToSale(uint256,uint256)": {
        "notice": "Add Tokens"
      },
      "changeMaxProp(uint256)": {
        "notice": "Change the max proportion allowed to mint"
      },
      "flipSaleState()": {
        "notice": "Pause sale if active, make active if paused"
      },
      "withdrawAll()": {
        "notice": "Admin extract funds"
      }
    },
    "version": 1
  },
  "storageLayout": {
    "storage": [
      {
        "astId": 400,
        "contract": "contracts/CryptoSportsMintingMgmt.sol:CryptoSportsMintingMgmt",
        "label": "_owner",
        "offset": 0,
        "slot": "0",
        "type": "t_address"
      },
      {
        "astId": 542,
        "contract": "contracts/CryptoSportsMintingMgmt.sol:CryptoSportsMintingMgmt",
        "label": "_totalShares",
        "offset": 0,
        "slot": "1",
        "type": "t_uint256"
      },
      {
        "astId": 544,
        "contract": "contracts/CryptoSportsMintingMgmt.sol:CryptoSportsMintingMgmt",
        "label": "_totalReleased",
        "offset": 0,
        "slot": "2",
        "type": "t_uint256"
      },
      {
        "astId": 548,
        "contract": "contracts/CryptoSportsMintingMgmt.sol:CryptoSportsMintingMgmt",
        "label": "_shares",
        "offset": 0,
        "slot": "3",
        "type": "t_mapping(t_address,t_uint256)"
      },
      {
        "astId": 552,
        "contract": "contracts/CryptoSportsMintingMgmt.sol:CryptoSportsMintingMgmt",
        "label": "_released",
        "offset": 0,
        "slot": "4",
        "type": "t_mapping(t_address,t_uint256)"
      },
      {
        "astId": 555,
        "contract": "contracts/CryptoSportsMintingMgmt.sol:CryptoSportsMintingMgmt",
        "label": "_payees",
        "offset": 0,
        "slot": "5",
        "type": "t_array(t_address)dyn_storage"
      },
      {
        "astId": 560,
        "contract": "contracts/CryptoSportsMintingMgmt.sol:CryptoSportsMintingMgmt",
        "label": "_erc20TotalReleased",
        "offset": 0,
        "slot": "6",
        "type": "t_mapping(t_contract(IERC20)2603,t_uint256)"
      },
      {
        "astId": 567,
        "contract": "contracts/CryptoSportsMintingMgmt.sol:CryptoSportsMintingMgmt",
        "label": "_erc20Released",
        "offset": 0,
        "slot": "7",
        "type": "t_mapping(t_contract(IERC20)2603,t_mapping(t_address,t_uint256))"
      },
      {
        "astId": 1095,
        "contract": "contracts/CryptoSportsMintingMgmt.sol:CryptoSportsMintingMgmt",
        "label": "_status",
        "offset": 0,
        "slot": "8",
        "type": "t_uint256"
      },
      {
        "astId": 24,
        "contract": "contracts/CryptoSportsMintingMgmt.sol:CryptoSportsMintingMgmt",
        "label": "_roles",
        "offset": 0,
        "slot": "9",
        "type": "t_mapping(t_bytes32,t_struct(RoleData)19_storage)"
      },
      {
        "astId": 4059,
        "contract": "contracts/CryptoSportsMintingMgmt.sol:CryptoSportsMintingMgmt",
        "label": "name",
        "offset": 0,
        "slot": "10",
        "type": "t_string_storage"
      },
      {
        "astId": 4073,
        "contract": "contracts/CryptoSportsMintingMgmt.sol:CryptoSportsMintingMgmt",
        "label": "_addedCards",
        "offset": 0,
        "slot": "11",
        "type": "t_mapping(t_uint256,t_struct(PlayerCards)4068_storage)"
      },
      {
        "astId": 4075,
        "contract": "contracts/CryptoSportsMintingMgmt.sol:CryptoSportsMintingMgmt",
        "label": "_totalCards",
        "offset": 0,
        "slot": "12",
        "type": "t_uint256"
      },
      {
        "astId": 4078,
        "contract": "contracts/CryptoSportsMintingMgmt.sol:CryptoSportsMintingMgmt",
        "label": "saleIsActive",
        "offset": 0,
        "slot": "13",
        "type": "t_bool"
      },
      {
        "astId": 4081,
        "contract": "contracts/CryptoSportsMintingMgmt.sol:CryptoSportsMintingMgmt",
        "label": "MAXPORTIONALLOWEDTOHOLD",
        "offset": 0,
        "slot": "14",
        "type": "t_uint256"
      },
      {
        "astId": 4083,
        "contract": "contracts/CryptoSportsMintingMgmt.sol:CryptoSportsMintingMgmt",
        "label": "_baseTokenURI",
        "offset": 0,
        "slot": "15",
        "type": "t_string_storage"
      },
      {
        "astId": 4085,
        "contract": "contracts/CryptoSportsMintingMgmt.sol:CryptoSportsMintingMgmt",
        "label": "cryptosports1155",
        "offset": 0,
        "slot": "16",
        "type": "t_address"
      }
    ],
    "types": {
      "t_address": {
        "encoding": "inplace",
        "label": "address",
        "numberOfBytes": "20"
      },
      "t_array(t_address)dyn_storage": {
        "base": "t_address",
        "encoding": "dynamic_array",
        "label": "address[]",
        "numberOfBytes": "32"
      },
      "t_bool": {
        "encoding": "inplace",
        "label": "bool",
        "numberOfBytes": "1"
      },
      "t_bytes32": {
        "encoding": "inplace",
        "label": "bytes32",
        "numberOfBytes": "32"
      },
      "t_contract(IERC20)2603": {
        "encoding": "inplace",
        "label": "contract IERC20",
        "numberOfBytes": "20"
      },
      "t_mapping(t_address,t_bool)": {
        "encoding": "mapping",
        "key": "t_address",
        "label": "mapping(address => bool)",
        "numberOfBytes": "32",
        "value": "t_bool"
      },
      "t_mapping(t_address,t_uint256)": {
        "encoding": "mapping",
        "key": "t_address",
        "label": "mapping(address => uint256)",
        "numberOfBytes": "32",
        "value": "t_uint256"
      },
      "t_mapping(t_bytes32,t_struct(RoleData)19_storage)": {
        "encoding": "mapping",
        "key": "t_bytes32",
        "label": "mapping(bytes32 => struct AccessControl.RoleData)",
        "numberOfBytes": "32",
        "value": "t_struct(RoleData)19_storage"
      },
      "t_mapping(t_contract(IERC20)2603,t_mapping(t_address,t_uint256))": {
        "encoding": "mapping",
        "key": "t_contract(IERC20)2603",
        "label": "mapping(contract IERC20 => mapping(address => uint256))",
        "numberOfBytes": "32",
        "value": "t_mapping(t_address,t_uint256)"
      },
      "t_mapping(t_contract(IERC20)2603,t_uint256)": {
        "encoding": "mapping",
        "key": "t_contract(IERC20)2603",
        "label": "mapping(contract IERC20 => uint256)",
        "numberOfBytes": "32",
        "value": "t_uint256"
      },
      "t_mapping(t_uint256,t_struct(PlayerCards)4068_storage)": {
        "encoding": "mapping",
        "key": "t_uint256",
        "label": "mapping(uint256 => struct CryptoSportsMintingMgmt.PlayerCards)",
        "numberOfBytes": "32",
        "value": "t_struct(PlayerCards)4068_storage"
      },
      "t_string_storage": {
        "encoding": "bytes",
        "label": "string",
        "numberOfBytes": "32"
      },
      "t_struct(PlayerCards)4068_storage": {
        "encoding": "inplace",
        "label": "struct CryptoSportsMintingMgmt.PlayerCards",
        "members": [
          {
            "astId": 4061,
            "contract": "contracts/CryptoSportsMintingMgmt.sol:CryptoSportsMintingMgmt",
            "label": "tokenId",
            "offset": 0,
            "slot": "0",
            "type": "t_uint256"
          },
          {
            "astId": 4063,
            "contract": "contracts/CryptoSportsMintingMgmt.sol:CryptoSportsMintingMgmt",
            "label": "price",
            "offset": 0,
            "slot": "1",
            "type": "t_uint256"
          },
          {
            "astId": 4065,
            "contract": "contracts/CryptoSportsMintingMgmt.sol:CryptoSportsMintingMgmt",
            "label": "maxSupply",
            "offset": 0,
            "slot": "2",
            "type": "t_uint256"
          },
          {
            "astId": 4067,
            "contract": "contracts/CryptoSportsMintingMgmt.sol:CryptoSportsMintingMgmt",
            "label": "totalminted",
            "offset": 0,
            "slot": "3",
            "type": "t_uint256"
          }
        ],
        "numberOfBytes": "128"
      },
      "t_struct(RoleData)19_storage": {
        "encoding": "inplace",
        "label": "struct AccessControl.RoleData",
        "members": [
          {
            "astId": 16,
            "contract": "contracts/CryptoSportsMintingMgmt.sol:CryptoSportsMintingMgmt",
            "label": "members",
            "offset": 0,
            "slot": "0",
            "type": "t_mapping(t_address,t_bool)"
          },
          {
            "astId": 18,
            "contract": "contracts/CryptoSportsMintingMgmt.sol:CryptoSportsMintingMgmt",
            "label": "adminRole",
            "offset": 0,
            "slot": "1",
            "type": "t_bytes32"
          }
        ],
        "numberOfBytes": "64"
      },
      "t_uint256": {
        "encoding": "inplace",
        "label": "uint256",
        "numberOfBytes": "32"
      }
    }
  }
}